{
  "contractName": "Elections",
  "abi": [
    {
      "constant": false,
      "inputs": [],
      "name": "Election",
      "outputs": [],
      "payable": false,
      "stateMutability": "nonpayable",
      "type": "function"
    },
    {
      "constant": false,
      "inputs": [
        {
          "name": "idcand",
          "type": "uint256"
        }
      ],
      "name": "Vote",
      "outputs": [],
      "payable": false,
      "stateMutability": "nonpayable",
      "type": "function"
    },
    {
      "constant": true,
      "inputs": [],
      "name": "getNumOfCandidates",
      "outputs": [
        {
          "name": "",
          "type": "uint256"
        }
      ],
      "payable": false,
      "stateMutability": "view",
      "type": "function"
    },
    {
      "constant": true,
      "inputs": [
        {
          "name": "candidateID",
          "type": "uint256"
        }
      ],
      "name": "getCandidate",
      "outputs": [
        {
          "name": "",
          "type": "uint256"
        },
        {
          "name": "",
          "type": "bytes32"
        },
        {
          "name": "",
          "type": "bytes32"
        },
        {
          "name": "",
          "type": "uint256"
        }
      ],
      "payable": false,
      "stateMutability": "view",
      "type": "function"
    }
  ],
  "bytecode": "0x6060604052341561000f57600080fd5b6103e58061001e6000396000f300606060405260043610610062576000357c0100000000000000000000000000000000000000000000000000000000900463ffffffff1680631d6c263c1461006757806335b8e8201461007c578063dcd6a5cd146100d8578063e8685ba1146100fb575b600080fd5b341561007257600080fd5b61007a610124565b005b341561008757600080fd5b61009d60048080359060200190919050506101be565b604051808581526020018460001916600019168152602001836000191660001916815260200182815260200194505050505060405180910390f35b34156100e357600080fd5b6100f96004808035906020019091905050610219565b005b341561010657600080fd5b61010e610323565b6040518082815260200191505060405180910390f35b6101707f4d4143524f4e00000000000000000000000000000000000000000000000000007f454e204d41524348450000000000000000000000000000000000000000000000600161032d565b6101bc7f4c452050454e00000000000000000000000000000000000000000000000000007f46524f4e54204e4154494f4e414c000000000000000000000000000000000000600261032d565b565b6000806000808460026000878152602001908152602001600020600001546002600088815260200190815260200160002060010154600260008981526020019081526020016000206003015493509350935093509193509193565b600360003373ffffffffffffffffffffffffffffffffffffffff1673ffffffffffffffffffffffffffffffffffffffff16815260200190815260200160002060009054906101000a900460ff1615151561027257600080fd5b8060026000838152602001908152602001600020600201541415610320576001600360003373ffffffffffffffffffffffffffffffffffffffff1673ffffffffffffffffffffffffffffffffffffffff16815260200190815260200160002060006101000a81548160ff021916908315150217905550600260008281526020019081526020016000206003016000815480929190600101919050555060008081548092919060010191905055505b50565b6000600154905090565b6001600081548092919060010191905055506080604051908101604052808460001916815260200183600019168152602001828152602001600081525060026000838152602001908152602001600020600082015181600001906000191690556020820151816001019060001916905560408201518160020155606082015181600301559050505050505600a165627a7a723058207c1e7794c15826da28e493e6127fc77790d2037ac947bb1536bc913667d7a3800029",
  "source": " pragma solidity 0.4.20;\n\n contract Elections {\n\n uint nbtotvot;\n uint nbtotcand;\n\n// solidity par conventions chaque nom d'attribut de fonction commence par un _\n  struct Votant{\n    string id;\n  }\n\n struct Candidat{\n   bytes32 nom;\n   bytes32 parti;\n   uint id;\n   uint nbvotes;\n }\n\n mapping(uint => Candidat) candidats;\n mapping(address => bool) votants;\n\n function AjoutCandidat(bytes32 nom, bytes32 parti, uint id) private\n {\n   nbtotcand++;\n   candidats[id] = Candidat(nom,parti,id,0);\n }\n\n function Election () public {\n     AjoutCandidat(\"MACRON\", \"EN MARCHE\",1);\n     AjoutCandidat(\"LE PEN\",\"FRONT NATIONAL\",2);\n }\n\n function Vote(uint idcand) public {\n   require(!votants[msg.sender]);\n   if (candidats[idcand].id==idcand){\n     votants[msg.sender] = true;\n     candidats[idcand].nbvotes++;\n     nbtotvot++;\n   }\n }\n\n function getNumOfCandidates() public view returns(uint) {\n     return nbtotcand;\n }\n\n function getCandidate(uint candidateID) public view returns (uint,bytes32, bytes32, uint) {\n     return (candidateID,candidats[candidateID].nom,candidats[candidateID].parti, candidats[candidateID].nbvotes);\n }\n\n }\n",
  "sourcePath": "/home/al/project/Blockchain/election/contracts/Election.sol",
  "compiler": {
    "name": "solc",
    "version": "0.4.20+commit.3155dd80.Emscripten.clang"
  },
  "schemaVersion": "3.0.19",
  "updatedAt": "2019-11-14T21:29:19.991Z",
  "devdoc": {
    "methods": {}
  },
  "userdoc": {
    "methods": {}
  }
}